:10000000B0580020E9DD00008BE20000038C000006
:10001000F7DD0000F7DD0000F7DD0000F7DD000090
:10002000000000000000000000000000F7DD0000FC
:10003000F7DD000000000000738B000067FC00008B
:10004000D9F70000F5F600009DF8000057E8000021
:10005000D9F70000F5F600009DF80000F1F8000067
:10006000000000000000000000000000F1F80000A7
:100070000000000000000000000000000000000080
:100080000000000000000000000000000000000070
:100090000000000000000000000000000000000060
:1000A0000000000000000000000000000000000050
:10040000FFFFFFFFDFCEFFFFFCFF0F00FFFF0F002E
:10041000FCFF0F00FFFF0F00FCFF0F00FFFF0F00AE
:10042000FCFF0F20FFFF0F20FCFF7F40FFFF7F40FE
:10043000FCFF0D40FFFF0D40FFFFFFFFFFFFFFFF31
:10044000FFFFFFFFFFFFFFFFFFFFFFFFFFFFFFFFBC
:10045000FFFFFFFFFFFFFFFFFFFFFFFFFFFFFFFFAC
:10046000FFFFFFFFFFFFFFFFFFFFFFFFFFFFFFFF9C
:10047000FFFFFFFFFFFFFFFFFFFFFFFFFFFFFFFF8C
:10048000FFFFFFFFFFFFFFFFFFFFFFFFFFFFFFFF7C
:10049000FFFFFFFFFFFFFFFFFFFFFFFFFFFFFFFF6C
:1004A000FFFFFFFFFFFFFFFFFFFFFFFFFFFFFFFF5C
:1004B000FFFFFFFFFFFFFFFFFFFFFFFFFFFFFFFF4C
:1004C000FFFFFFFFFFFFFFFFFFFFFFFFFFFFFFFF3C
:1004D000FFFFFFFFFFFFFFFFFFFFFFFFFFFFFFFF2C
:1004E000FFFFFFFFFFFFFFFFFFFFFFFFFFFFFFFF1C
:1004F000FFFFFFFFFFFFFFFFFFFFFFFFFFFFFFFF0C
:1005000010B544F25064C2F20004237863B940F29B
:100510000003C0F200032BB145F2FC40C0F2010021
:1005200000E000BF0123237010BDC04640F200036D
:10053000C0F2000310B54BB144F2546145F2FC40E7
:10054000C2F20001C0F2010000E000BF10BDC046D1
:1005500080B500AF44F21C73C2F200031B6843B1C4
:1005600041F61803C0F2010318000AF050FD002301
:100570004BE000F021FD44F26C63C2F20003102254
:100580000021180009F0C0FF44F27C63C2F20003AE
:1005900040220021180009F0B7FF44F21473C2F2A0
:1005A000000308220021180009F0AEFF41F62C01DB
:1005B000C0F2010144F2BC63C2F200030122180040
:1005C00009F05DFB41F63401C0F2010144F2E86339
:1005D000C2F200030122180009F051FB44F20003AB
:1005E000C2F2000340F200120021180009F08CFF53
:1005F00044F20003C2F200032F221A7044F21C736B
:10060000C2F2000301221A6000231800BD4680BD1B
:1006100080B582B000AF07235B427B600BE0012313
:100620005A4244F2BC63C2F200031100180009F000
:1006300059FD03007B607B680733F0D07B685BB1BA
:1006400041F66811C0F2010141F63C03C0F201031A
:100650007E2218000AF0A1FEC046BD4602B080BD51
:1006600080B582B000AF07235B427B600BE00123C3
:100670005A4244F2E863C2F200031100180009F084
:1006800031FD03007B607B680733F0D07B685BB192
:1006900041F67411C0F2010141F63C03C0F20103BE
:1006A0008D2218000AF079FEC046BD4602B080BD1A
:1006B00080B500AF44F2BC63C2F20003180009F039
:1006C00021FDC046BD4680BD80B500AF44F2E86361
:1006D000C2F20003180009F015FDC046BD4680BDFA
:1006E00080B586B000AF786039600023FB607B681E
:1006F0001A683B689A4201D93B6836E03B680F2B89
:1007000002DD01235B4230E03B6804330322934364
:100710007B617B69102B01DD10237B617B685A684C
:100720007B699B00190010000AF07EFD0300FB604E
:10073000FB6813B901235B4217E07B681B683B61D0
:1007400008E03B699B00FA68D31800221A603B69F5
:1007500001333B613A697B699A42F2DB7B68FA6854
:100760005A607A697B681A603B681800BD4606B01B
:1007700080BD80B584B000AF786039603B68FB60B5
:100780000BE07B685A68FB689B00D3181B680BB9A9
:10079000FB681DE0FB680133FB607B681B681A0087
:1007A000FB689342EDDB7B681B68FB60FA683B6883
:1007B0009A4201DA3B68FB60FA687B681100180016
:1007C000FFF78EFF031E02DA01235B4200E0FB68A5
:1007D0001800BD4604B080BD80B584B000AF78601D
:1007E00039600023FB603A687B6811001800FFF74E
:1007F000C0FF0300BB60BB68002B02DA01235B4231
:100800001BE0182101200AF02DFD0300FB60FB68AE
:1008100013B901235B4210E0FB6801229A60FB6878
:10082000084A1A80FB6800221A617B685A68BB6814
:100830009B00D318FA681A60BB681800BD4604B064
:1008400080BDC046FDFDFFFF80B584B000AF78607D
:10085000FFF706FF7B6803211800FFF7BDFF0300C9
:10086000FB60FB68002B14DA41F64003C0F2010381
:1008700018000AF0CCFB41F64C03C0F2010318004B
:100880000AF0C5FB41F68803C0F2010318000AF024
:10089000BEFBFFF719FFFB681800BD4604B080BD22
:1008A00080B582B000AF00237B6000F042FA030005
:1008B0007B607B681800FFF7C7FF03001800BD4688
:1008C00002B080BD80B584B000AF786039603B680D
:1008D000002B05DB7B681B681A003B68934201DB39
:1008E000002317E0FFF7BCFE7B685A683B689B005B
:1008F000D3181B68FB60FB682BB1FB681B884FF6A5
:10090000FD52934203D0FFF7DFFE002302E0FFF722
:10091000DBFEFB681800BD4604B080BD80B584B026
:1009200000AF786000F005FA0300FB607A68FB68AE
:1009300011001800FFF7C6FF03001800BD4604B001
:1009400080BD80B584B000AF786039600023FB6063
:100950007B6863B941F68011C0F2010141F68C0356
:10096000C0F2010340F24D1218000AF016FDFFF725
:1009700077FE3B68002B04DB7B681A683B689A4271
:1009800002D8FFF7A1FE3DE07B685A683B689B00F8
:10099000D3181B68FB60FB6813B9FFF795FE31E0C5
:1009A0007B685A683B689B00D31800221A60FB687A
:1009B0001B884FF6FD5293420CD041F68011C0F2D5
:1009C000010141F69803C0F2010340F260121800E1
:1009D0000AF0E3FCFB689B685A1EFB689A60FB68A0
:1009E0009B686BB9FB681B69BB60BB6823B1BB68C4
:1009F000DB685A1EBB68DA60FB6818000AF04EFC20
:100A0000FFF762FEBD4604B080BD80B584B000AF84
:100A1000786000F08EF90300FB607A68FB681100D3
:100A20001800FFF78EFFC046BD4604B080BDFFFF33
:100A300080B582B000AF78607B6873B17B68094A8B
:100A40001A807B6801229A607B680022DA607B68EA
:100A500000221A617B6800225A61C046BD4602B07E
:100A600080BDC046FDFDFFFF90B585B000AF78604A
:100A700039607B68180010F0C9F904003B68180061
:100A800010F0C4F903009C4201D1002314E07B68FC
:100A9000180010F0BBF902003B689B18FB60FB6874
:100AA0001B785BB22F2B06D0FA683B689A4202D0C3
:100AB000FB68013BFB60FB681800BD4605B090BDBC
:100AC00090B58BB002AF786039603B6863B941F68E
:100AD0009011C0F2010141F6B803C0F2010340F2E7
:100AE000822218000AF059FC7B6823B944F2000303
:100AF000C2F200037B603B681B785BB22F2B2CD0CB
:100B00007B68180010F082F904003B68180010F0B0
:100B10007DF90300E318023318000AF059FB0300C3
:100B2000FB61FB690BB90023FFE07B68180010F044
:100B30006DF904003B68180010F068F90300E31831
:100B4000991C7C6841F6CC02C0F20102F8693B684E
:100B5000009323000AF0D0F909E03B68180009F07F
:100B6000E9FD0300FB61FB690BB90023DDE0FB69D4
:100B70007B61FB69BB61BB69FB6013217B187A69F0
:100B800012781A707B181B785BB22E2B4FD17B69C1
:100B900001331B785BB21BB97B6901337B6146E093
:100BA0007B6901331B785BB22F2B12D17B69023337
:100BB0007B6102E07B6901337B617B691B785BB2FF
:100BC0002F2B00D08FE07B691B785BB2002BF1D11B
:100BD00089E07B6901331B785BB22E2B27D17B69BF
:100BE00002331B785BB21BB97B6902337B6153E034
:100BF0007B6902331B785BB22F2B18D17B690333DF
:100C00007B6102E07B6901337B617B691B785BB2AE
:100C10002F2B40D17B691B785BB2002BF2D13AE0DD
:100C2000BB695A1CBA611322BA1812781A707B6910
:100C30005A1C7A6113217A181B7813700A00BB18AA
:100C40001B785BB223B1BB181B785BB22F2BE7D1AB
:100C50001323FB181B785BB22F2B16D1BB695A1CD0
:100C6000BA612F221A7006E07B695A1C7A6113223E
:100C7000BA181B7813701323FB181B785BB22F2B49
:100C8000F2D07B69013B7B612FE01323FB181B78BB
:100C90005BB253BB2BE0C046BA69FB68D31A012B89
:100CA00005D1BB69013B1B785BB22F2B0FD0BB6911
:100CB000013BBB61BA69FB689A4208D2FB69180024
:100CC0000AF0ECFA002330E0BB69013BBB61FA6833
:100CD000BB699A4200D350E7BB69013B1B785BB20A
:100CE0002F2BF1D149E7C04647E7C04645E7BB692E
:100CF00000221A70BB69013BBB61BA69FB699A4269
:100D000007D0BB691B785BB22F2B02D1BB690022D5
:100D10001A70FB691B785BB233B9FB692F221A701A
:100D2000FB69013300221A70FB691800BD4609B047
:100D300090BD80B582B000AF44F21473C2F20003DC
:100D40007B607B681800BD4602B080BD80B584B072
:100D500000AFFFF7EEFF0300BB60BB6813B90123D0
:100D60005B42CBE0FFF754FC41F6D403C0F2010331
:100D700018000AF04CF941F6F003C0F20103180024
:100D80000AF045F90023FB60AEE0BB685A68FB68D7
:100D90009B00D3181B687B607B68002B00D1A0E010
:100DA0007B681B69DB69002B00D19AE0FA6841F689
:100DB0001013C0F20103110018000AF028F97B6833
:100DC0001B691B88022B0CD141F61812C0F20102DC
:100DD00041F61C13C0F20103110018000AF017F9C4
:100DE00052E07B681B691B8863B941F62412C0F28C
:100DF000010241F61C13C0F20103110018000AF0B1
:100E000006F941E07B681B691B88012B0CD141F678
:100E10002C12C0F2010241F61C13C0F201031100B2
:100E200018000AF0F4F82FE07B681B691B88032B7D
:100E30000CD141F63412C0F2010241F61C13C0F28B
:100E40000103110018000AF0E2F81DE07B681B693D
:100E50001B88042B0CD141F63C12C0F2010241F672
:100E60001C13C0F20103110018000AF0D0F80BE0C7
:100E700041F64412C0F2010241F64C13C0F20103E4
:100E8000110018000AF0C3F87B681B69DA6841F6A4
:100E90005413C0F20103110018000AF0B8F87B687F
:100EA0001B881A0041F65C13C0F201031100180000
:100EB0000AF0ADF87B681B695B685BB17B681B69F6
:100EC0005A6841F66413C0F20103110018000AF0D9
:100ED0009EF806E041F68803C0F2010318000AF00C
:100EE00096F8FB680133FB60BB681B681A00FB685F
:100EF000934200DA49E7FFF7DBFB00231800BD4609
:100F000004B080BD80B582B000AF78607B687A683D
:100F10005A607B685A687B681A60C046BD4602B05A
:100F200080BD80B582B000AF786039607B681B6897
:100F30003A685A607B681A683B681A607B683A684E
:100F40001A603B687A685A60C046BD4602B080BDF0
:100F500080B582B000AF78607B681B687A685268A1
:100F60005A607B685B687A6812681A607B687A6886
:100F70005A607B685A687B681A60C046BD4602B0FA
:100F800080BD80B500AF01235A4244F22073C2F203
:100F900000031100180009F0A5F8C046BD4680BD49
:100FA00080B500AF44F22073C2F20003180009F0CC
:100FB000A9F8C046BD4680BD80B582B000AF002311
:100FC0007B6041F6A411C0F2010144F22073C2F229
:100FD00000030122180008F052FE00237B600EE09F
:100FE0007B680533DA0044F22073C2F20003D318A1
:100FF00004331800FFF786FF7B6801337B607B6852
:101000007F2BEDDDC046C046BD4602B080BD80B539
:1010100084B000AF78608323BB600023FB6009E0ED
:10102000FB68BA685A437B68591C79601B785BB2CD
:10103000D318FB607B681B785BB2002BF0D1FB6898
:101040007F2213401800BD4604B080BD80B586B035
:1010500000AF7860396000233B617B681800FFF7C0
:10106000D6FF0300FB6044F22073C2F20003FA686B
:101070000532D2009B1804331B687B613B68E3B1E7
:10108000FB680533DA0044F22073C2F20003D31880
:101090001A1D3B681A6010E07B69103B3B613B699D
:1010A0009A687B68110018000FF064FE03000BB90A
:1010B0003B690FE07B691B687B61FB680533DA00E5
:1010C00044F22073C2F20003D31804337A699A42BF
:1010D000E2D100231800BD4606B080BD80B586B0C1
:1010E00000AF786000233B610023FB6000237B613D
:1010F0007B6819000020FFF7E3FC03003B61FFF76A
:1011000040FF3B6900211800FFF7A0FF0300FB60D0
:10111000FB680BB101237B61FFF742FF3B691800BD
:101120000AF0BCF87B691800BD4606B080BD80B5EA
:101130008AB000AFF860B9607A6000237B62FB6818
:1011400013B916235B4206E1BB6819000020FFF7C4
:10115000B7FC03003B623B6A13B90C235B42FAE025
:10116000FFF70FFF1423FA183B6A11001800FFF76E
:101170006DFF03007B627B6A8BB17B6ADB685A1C64
:101180007B6ADA60FB680022DA60FB687A6A1A61BF
:10119000FFF706FF3B6A18000AF080F88BE03B6A15
:1011A000180000F019FF0300FB61FB6943B9FFF76A
:1011B000F7FE3B6A18000AF071F802235B42CAE0AE
:1011C0002C2101200AF04EF803007B627B6A43B9B0
:1011D000FFF7E6FE3B6A18000AF060F80C235B425A
:1011E000B9E07B6A0122DA607B6AFA699A61FB697D
:1011F0009B689A687B6ADA617B6A00221A807B6A44
:1012000000221A62FB699B685B680122134013BBD2
:10121000FB695B683A6A11001800FFF725FC0300C0
:1012200053B941F6AC13C0F20103180009F082FA79
:1012300002007B6A5A6011E0FB695B683A6A110040
:101240001800FFF711FC0300180009F073FA020000
:101250007B6A5A6002E07B6A3A6A5A607B6A3A6A41
:101260009A607B6ADB691B68C3B9FFF799FE7B6AEA
:101270005A687B6A9B689A4204D07B6A9B68180014
:101280000AF00CF87B6A5B6818000AF007F87B6AC2
:1012900018000AF003F858235B425CE0FB68002268
:1012A000DA60FB687A6A1A617A697B6A103319001E
:1012B0001000FFF736FE7A68FB685A607B6ADB69CC
:1012C0001B68FA68100098470300BB61BB69002BDC
:1012D00027DA7B6ADB685A1E7B6ADA607B6ADB6826
:1012E000DBB97B6A10331800FFF732FE7B6A5A685D
:1012F0007B6A9B689A4204D07B6A9B68180009F05D
:10130000CDFF7B6A5B68180009F0C8FFFB6800220C
:101310001A617B6A180009F0C1FFFFF741FEBB6943
:1013200019E0FB685B68802252041A43FB685A602C
:101330007A6880239B03134053B1FB681B69022228
:101340001A80FB685B68802292041A43FB685A602B
:10135000FFF726FE00231800BD460AB080BD80B509
:1013600084B000AF78600023BB600023FB607B6823
:1013700013B906235B4247E07B689B68012B42D18F
:10138000FFF7FFFD7B681B69BB60BB68DB68002B58
:1013900004DCFFF705FE06235B4235E0BB68DB6932
:1013A0005B683BB1BB68DB695B687A681000984793
:1013B0000300FB60FB68002B03DAFFF7F1FDFB681D
:1013C00022E0BB68DB68012B1BD1BB68103318001F
:1013D000FFF7BEFD7B6800221A61BB685A68BB68D4
:1013E0009B689A4204D0BB689B68180009F056FFBE
:1013F000BB685B68180009F051FFBB68180009F072
:101400004DFFFFF7CDFDFB681800BD4604B080BD61
:1014100080B586B000AFF860B9607A6000237B6168
:10142000FB6813B916235B421CE0FB681B69DB6990
:10143000DB6813B958235B4214E0FB681B69DB6966
:10144000DB687A68B968F868984703007B617B6954
:10145000002B06DAFB685B688022D2041A43FB6823
:101460005A607B691800BD4606B080BD80B584B067
:1014700000AFF860B9607A60FB6813B916235B426D
:1014800018E0FB681B691B88022B02D016235B4205
:1014900010E0FB681B69DB69DB694BB1FB681B690A
:1014A000DB69DB697A68B968F8689847030001E08E
:1014B00058235B421800BD4604B080BD90B587B08C
:1014C00000AF78607B6819000020FFF7F9FA03008D
:1014D0003B613B6913B916235B425AE03B69180034
:1014E000FFF7FCFD03001BB110235B427B614BE067
:1014F0003B69180000F070FD0300FB60FB681BB93E
:1015000002235B427B613FE0FB689B68DB69002B49
:1015100037D0FB689B685B68012213403BBBFB68CC
:101520005B683A6911001800FFF79EFA030063B97F
:10153000FB689B68DA6941F6AC13C0F20103F868F6
:101540001900904703007B611EE0FB689B68DC6923
:10155000FB685B683A6911001800FFF785FA020022
:10156000FB6811001800A04703007B610CE0FB68DA
:101570009B68DB693969FA681000984703007B6152
:1015800002E058235B427B613B69180009F086FE4C
:101590007B691800BD4607B090BD80B584B000AF30
:1015A000F860B9607A60FB6813B916235B4210E0FB
:1015B000FB681B69DB691B6913B958235B4208E0B0
:1015C000FB681B69DB691B697A68B968F86898472A
:1015D00003001800BD4604B080BD80B584B000AFE4
:1015E000786039607B6813B916235B4218E07B682A
:1015F0001B69DB699B6913B958235B4210E07B6868
:101600001B69DB699B6939687A6810009847030099
:10161000FB60FB68002B02DB7B68FA68DA60FB6822
:101620001800BD4604B080BD90B587B000AF7860AB
:1016300039607B6819000020FFF742FA03003B6124
:101640003B6913B901235B429AE03B69180000F043
:10165000C3FC0300FB60FB68EBB941F6B013C0F2BA
:101660000103180009F0D3FC3A6941F6BC13C0F23B
:1016700001031100180009F0CAFC41F6EC13C0F296
:101680000103180009F0C3FC3B69180009F006FECD
:1016900002235B4274E03B691B785BB22F2B04D1C1
:1016A0003B6901331B785BB243B1FB685B683A6905
:1016B00011001800FFF7D8F90300DBB93B680022DE
:1016C0001A803B6840F2B6125A603B685B6844F28D
:1016D00049021A433B685A603B6800221A61396824
:1016E000002200238A62CB623B69180009F0D6FD14
:1016F000002345E0FB689B681B6ADBB93B69180067
:1017000009F0CCFD41F6B013C0F20103180009F056
:101710007EFC41F6F013C0F20103180009F077FCDB
:1017200041F6EC13C0F20103180009F070FC5823D5
:101730005B4225E0FB689B685B68012213404BB16C
:10174000FB689B681B6A3A683969F8689847030028
:101750007B6110E0FB689B681C6AFB685B683A6908
:1017600011001800FFF780F901003A68FB681800C3
:10177000A04703007B613B69180009F08FFD7B697E
:101780001800BD4607B090BDB0B588B000AF786016
:1017900039600023FB6100237B6100233B61002350
:1017A000FB600023BB610023BB610023FB607B68FF
:1017B00019000020FFF784F90300FB60FB681BB9E8
:1017C00002235B42FB615BE0FB681800FFF786FCCD
:1017D00003001BB110235B42FB6151E03B68190021
:1017E0000020FFF76DF90300BB61BB691BB9022341
:1017F0005B42FB6144E0FB68180000F0EDFB030076
:101800007B61BB69180000F0E7FB03003B617A696C
:101810003B699A4231D17B699B685B6A1BB958234B
:101820005B42FB612CE07B699B685B680122134093
:101830004BB17B699B685B6ABA69F96878699847BC
:101840000300FB611CE07B699B685C6A7B695B68E9
:10185000FA6811001800FFF707F905003B695B689B
:10186000BA6911001800FFF7FFF802007B69290030
:101870001800A0470300FB6102E012235B42FB61FA
:10188000FB681BB1FB68180009F008FDBB691BB1C0
:10189000BB69180009F002FDFB691800BD4608B0DD
:1018A000B0BDFFFFB0B5E2B000AF7860002340F2FA
:1018B0008012BA1813607B687BB944F20003C2F24D
:1018C0000003180008F036FF030040F28412B91834
:1018D0000B60BB181B682BB9C5E07B6840F2841213
:1018E000BA18136040F264143B191800FFF7A0F80F
:1018F00080239A0340F284157B1919683B1918005C
:10190000FFF715FC0300002B00D09CE07B191A6840
:1019100041F62023C0F201031100180009F077FB03
:1019200060243B1940F204120021180008F0ECFD7D
:10193000391940F26413FB1840F204121800FFF743
:1019400095FD030040F27C12B9180B60BB181B68B0
:10195000002B68DD08257B1958220021180008F0AB
:10196000D3FD3B191A1D40F28413FB181B681100AC
:101970001800FFF7A5F8030040F280117A181360F1
:101980007B181B68002B56D07A197B181B68110036
:101990001800FFF749FE03009BBB3B191A1D41F6D7
:1019A0003023C0F201031100180009F030FB2F4B67
:1019B00040F2881CBC4463445B684FF20002134051
:1019C00044F2000293420CD141F63822C0F20102E7
:1019D00041F64023C0F201031100180009F017FB83
:1019E0001AE0224B40F2881CBC4463441B691A0075
:1019F00041F64823C0F201031100180009F007FB6B
:101A00000AE06023FB181A1D41F65023C0F20103BF
:101A10001100180009F0FBFA40F28013FB181B6854
:101A2000180009F03BFC40F27C13FB181B68002BEC
:101A300000DD75E700E0C04640F26413FB181800B3
:101A4000FFF78DFC06E041F66023C0F201031800A9
:101A500009F0DDFA7B6833B940F28413FB181B6888
:101A6000180009F01BFCBD4662B0B0BD80FEFFFF50
:101A700090B5A1B000AF78600023FB6760243B19EC
:101A80001800FEF7D5FF79683B1900221800FFF710
:101A90004EFB031E09DA7A6841F68823C0F201037F
:101AA0001100180009F0B3FA30E00C243B19512260
:101AB0000021180008F028FD39196023FB18502276
:101AC0001800FFF7A5FC0300FB67FB6F002B0EDD82
:101AD0003A19FB6FD31800221A7009F050FA03006C
:101AE000BB673A19B86F5123002107F0E7FBFB6F82
:101AF000002BDADC41F6EC13C0F20103180009F008
:101B000086FA6023FB181800FFF729FCBD4621B0B8
:101B100090BD90B593B000AF7860396041F200009D
:101B200009F056FB03007B647B6C3BB941F69823BC
:101B3000C0F20103180009F06AFA70E00C243B19A6
:101B40001800FEF775FF79683B1900221800FFF7AF
:101B5000EEFA031E0DDA7B6C180009F09FFB7A6821
:101B600041F6A823C0F201031100180009F04FFA52
:101B700055E024243B191800FEF75AFF39683B1939
:101B800040F201221800FFF7D2FA031E12DA7B6C32
:101B9000180009F083FB0C23FB181800FFF7DFFB8C
:101BA0003A6841F6B823C0F201031100180009F0A9
:101BB0002EFA34E0796C0C23FB1841F20002180075
:101BC000FFF726FC03003B643B6C002B16DD3A6CF0
:101BD000796C2423FB181800FFF7DFFC0300FB637C
:101BE000FA6B3B6C9A4209D0FA6B41F6CC23C0F2F7
:101BF00001031100180009F00AFA02E03B6C002B07
:101C0000D8DC0C23FB181800FFF7A9FB2423FB18D2
:101C10001800FFF7A4FB7B6C180009F03FFBBD46E2
:101C200013B090BDB0B5E2B000AF786039608023EA
:101C30009A0379680823FB181800FFF778FA031E47
:101C400009DA7A6841F6F023C0F2010311001800A6
:101C500009F0DDF9D9E078243B1940F204120021A3
:101C6000180008F051FC39190823FB1840F204123F
:101C70001800FFF7FBFB030040F28412B9180B6059
:101C8000BB181B68002B00DCB3E0002340F280157A
:101C90007A191360002340F27C12BA18136041F6DF
:101CA0000033C0F201033A190432190010000FF09A
:101CB00061F80300002B00D19AE041F60433C0F232
:101CC00001033A190432190010000FF053F8030011
:101CD000002B00D18CE03B191A1D7B681100180005
:101CE000FEF7EEFE03007A1913607B191B683BB9FF
:101CF00041F60833C0F20103180009F088F97FE0CB
:101D00007823FB181A1D3B6811001800FEF7D8FE57
:101D1000030040F27C12B9180B60BB181B6873B942
:101D200041F60833C0F20103180009F070F940F2DF
:101D30008013FB181B68180009F0B0FA60E020243B
:101D40003B1958220021180008F0DEFB3A1940F236
:101D50008013FB181B6811001800FFF765FC0300D7
:101D60005BB17823FB181A1D41F61833C0F201034A
:101D70001100180009F04BF93BE0254B40F2881C9C
:101D8000BC4463445B684FF20002134044F200021B
:101D9000934212D140F27C143B191B6800211800B9
:101DA00000F065FE3B191A6840F28013FB181B68AF
:101DB00011001800FFF736FF0BE040F27C13FB1810
:101DC0001A6840F28013FB181B6811001800FFF717
:101DD000A0FE40F28013FB181B68180009F05EFAA1
:101DE00040F27C13FB181B68180009F057FA00E05A
:101DF000C04640F28413FB181B68002B00DD2AE765
:101E00000823FB181800FFF7AAFABD4662B0B0BD60
:101E100098FEFFFF80B584B000AF78607B682F210B
:101E200018000FF0B3F80300FB60FB680BB97B6888
:101E300003E0FB680133FB60FB681800BD4604B09B
:101E400080BD90B59DB000AF786039600023FB661F
:101E50000823FA187B6811001800FFF7E5FB031E42
:101E600009DA7A6841F63033C0F201031100180034
:101E700009F0CDF8ADE00823FB185B684FF20002D3
:101E8000134044F20002934204D1FB6E012213433B
:101E9000FB6603E0FB6E02221343FB6608243A193B
:101EA0003B6811001800FFF7BFFB031E11DB3B1955
:101EB0005B684FF20002134044F20002934204D1E7
:101EC000FB6E04221343FB6603E0FB6E0822134300
:101ED000FB66FB6E012213405BB1FB6E08221340D0
:101EE0003BB141F64833C0F20103180009F08FF806
:101EF0006FE0FB6E022213405BB3FB6E04221340C3
:101F000003B37B681800FFF785FF02003B681100F0
:101F10001800FEF7D5FD03007B667B6E3BB941F6EA
:101F20009823C0F20103180009F071F851E07A6EAD
:101F30007B6811001800FFF7ECFD7B6E180009F0BC
:101F4000ADF946E03A687B6811001800FFF7E1FD43
:101F50003FE0FB6E042213402BB37B681800FFF7B1
:101F600059FF02003B6811001800FEF7A9FD0300AD
:101F7000BB66BB6E3BB941F69823C0F20103180063
:101F800009F045F825E0BB6E0021180000F06FFD58
:101F9000BA6E7B6811001800FFF744FEBB6E180094
:101FA00009F07CF915E0FB6E0C2213405BB93B682D
:101FB0000021180000F05BFD3A687B6811001800F2
:101FC000FFF730FE05E03A687B6811001800FFF764
:101FD00029FEBD461DB090BD80B586B000AF7860CB
:101FE00000233B610023FB607B685BB941F66451D1
:101FF000C0F2010141F6C833C0F2010356221800B5
:1020000009F0CBF9FEF704FB44F27C63C2F2000353
:102010007B6138E07B695B686BB37B699B6853B31A
:102020007B695B6818000EF0F1FE0300BB60BA68C4
:10203000FB689A4221D37B695B68BA6879681800AB
:102040000EF03EFF0300C3B9BB68012B0ED97B68BD
:1020500018000EF0DBFE0200BB68934206D27A68DD
:10206000BB68D3181B785BB22F2B08D17B693B610F
:10207000BB68FB6004E0C04602E0C04600E0C0462A
:102080007B6910337B617A69044B9A42C2D3FEF7B5
:102090000FFB3B691800BD4606B080BDBC46002062
:1020A00090B591B000AFF860B9607A603B600023F2
:1020B0007B630023FB62FB6813B900233B630FE0E3
:1020C000FB68180006F0B9FF03003B633B6B3BB9AC
:1020D00013235B42180008F0D4F901235B4215E199
:1020E000FEF796FA44F26C63C2F20003FB6316E05B
:1020F000FB6B1B6883B1FB6B1B681C68FB6B1B686D
:102100001B6818000EF082FE02007B681900200098
:102110000EF0D6FE03003BB1FB6B0433FB63FA6B9E
:102120007C4B9A42E4D300E0C046FEF7C1FAFA6B5A
:10213000784B9A4207D113235B42180008F0A1F9AB
:1021400001235B42E2E0FB6B1B681BB1FB6B1B686E
:10215000DB683BB958235B42180008F092F9012371
:102160005B42D3E0BB6819000020FEF7A9FC030026
:10217000FB62FB6A3BB914235B42180008F081F94B
:1021800001235B42C2E041F62C43C0F20103FA6A2C
:10219000190010000EF0EEFD03004BB341F6304382
:1021A000C0F20103FA6A190010000EF0E3FD03000B
:1021B000F3B114243B191800FEF73AFC80239A036C
:1021C000F96A3B191800FEF7B2FF031E0BDAFB6A2F
:1021D000180009F063F814235B42180008F051F965
:1021E00001235B4292E01423FB181800FFF7B7F8B5
:1021F000FEF70EFA44F27C63C2F20003BB6319E0FF
:10220000BB6B9B6823B97B6B8BB9BB6B7B630EE0AD
:10221000BB6B5B68BA68110018000EF0ABFD0300E1
:102220002BB916235B42180008F02BF966E0BB6B54
:102230001033BB63BA6B384B9A42E1D37B6B03BB61
:10224000BA6B354B9A421CD11C235B42180008F034
:1022500018F941F68033C0F20103180008F0D7FEE8
:102260007A6841F63843C0F201031100180008F003
:10227000CEFE41F6C433C0F20103180008F0C7FED9
:102280003CE07B6BFA6A5A60FB6B1A687B6B9A6066
:102290007B6B3A6B1A607B6B7A68DA60FEF708FA40
:1022A0003B6B83B17B6B1B680321180006F0D3FEE8
:1022B000030043B1FEF7ACF97B6B1022002118003C
:1022C00008F022F91AE0FB6B1B68DB683A6D39688D
:1022D000786B9847031E0FDA3B6B23B17B6B1B684F
:1022E000180006F050FFFEF793F97B6B10220021D7
:1022F000180008F009F901E0002307E0FEF7D8F91B
:10230000FB6A180008F0CAFF01235B421800BD46B3
:1023100011B090BD7C460020BC46002080B586B040
:1023200000AF786000233B617B6819000020FEF756
:10233000C7FB0300FB60FB683BB914235B4218003A
:1023400008F09FF801235B4252E0FEF761F944F286
:102350007C63C2F200037B6111E07B695B685BB167
:102360007B695B68FA68110018000EF003FD03003A
:1023700013B97B693B6106E07B6910337B617A6945
:102380001D4B9A42E9D33B694BB33B699B681B6980
:102390002BB33B699B681B693A6910009847031E81
:1023A0001DDB3B691B6823B13B691B68180006F005
:1023B000EAFE3B695B6823B13B695B68180008F083
:1023C0006DFF3B6910220021180008F09DF8FEF710
:1023D0006FF9FB68180008F061FF002308E0C046B1
:1023E000FEF766F9FB68180008F058FF01235B420E
:1023F0001800BD4606B080BDBC46002090B587B031
:1024000000AF7860396000233B613B682BB13B68CB
:10241000180006F012FE03003B613B69F3B9132379
:102420005B42180008F02DF841F68033C0F201033A
:10243000180008F0ECFD3A6841F66C43C0F2010365
:102440001100180008F0E3FD41F6C433C0F20103A7
:10245000180008F0DCFD01235B427FE0FEF7D8F8AE
:1024600000237B6125E044F26C63C2F200037A69C9
:102470009200D358D3B144F26C63C2F200037A697C
:102480009200D3581C6844F26C63C2F200037A696C
:102490009200D3581B6818000EF0B8FC02007B684D
:1024A000190020000EF00CFD030033B17B690133ED
:1024B0007B617B69032BD6DD00E0C046FEF7F8F8B0
:1024C0007B69032B31DC44F26C63C2F200037A694E
:1024D0009200D358FB60FB685B69F3B941F6803327
:1024E000C0F20103180008F092FD7A6841F68843B3
:1024F000C0F201031100180008F089FD41F6C43351
:10250000C0F20103180008F082FD58235B42180056
:1025100007F0B7FF01235B4220E0FB685B69796845
:102520003A6910009847030018E041F68033C0F282
:102530000103180008F06BFD7A6841F6C043C0F251
:1025400001031100180008F062FD41F6C433C0F227
:102550000103180008F05BFD01235B421800BD4633
:1025600007B090BD80B584B000AF786039607B68FB
:102570001800FFF731FD0300FB60FB6863B1FB68E7
:102580009B689B6943B1FB689B689B693968FA68E3
:1025900010009847030006E058235B42180007F03C
:1025A00070FF01235B421800BD4604B080BDFFFFF1
:1025B000F0B59DB002AF786300237B6600237B6596
:1025C00008233022BA18D21841F65853C0F201033A
:1025D00013CB13C214233022BA18D2187B6B11000C
:1025E0001800FFF7BFFF03003B653B6DD3B107F059
:1025F00027FF0300583307D141F6E043C0F201033F
:10260000180008F004FD0AE007F01AFF020041F686
:102610000453C0F201031100180008F0F8FC012374
:102620005B42B4E014223023FB189B181B68BB608C
:102630000023FB603023FB189B189B683B60002342
:102640007B603A687B68B868F9680EF0EDFF0200BD
:102650000B00002B04DA40F2FF30002112184B412E
:102660009905900AB862B86A0843B8629B12FB6287
:10267000BB6AFC6ABB65FC6500237B6564E0FB6D9F
:10268000002B07DCFB6D002B62D1BB6D40F2FF32EB
:1026900093425DD9BA6DFB6D91058D0DDB0FDE07A1
:1026A00011D501225242D317521973413A491143AD
:1026B0000D000121494219430E0001220023521945
:1026C000734115001E0028003100B862F962020053
:1026D0000B00940F99007962796A21437962930023
:1026E0003B623A6A7B6AB86AF96A12184B419218DF
:1026F0005B41002B04DA40F2FF30002112184B41FD
:102700009905900AB861B8690843B8619B12FB61EA
:10271000BA69FB6913007B66BA6DFB6D002B04DAA6
:1027200040F2FF30002112184B419905900A3861A0
:102730003869084338619B127B613B697C69BB65E2
:10274000FC657B6D01337B657B6D012B97DD00E0C4
:10275000C046B96D082340F2300CBC4463447A6D26
:102760009200D55814203023FB181B189A68302388
:10277000FB181B181B687C6E41F62050C0F201004C
:10278000019300922B00220008F041FC0023180066
:10279000BD461BB0F0BDC04600FCFFFF0EB480B5C7
:1027A00087B000AF7860FEF77BF803007B617B6940
:1027B000002B07DA0C235B42180007F062FE0123AE
:1027C0005B421CE07B691800FEF7A8F803003B6140
:1027D0007A6A79683B691800FEF7A9FC0300FB6080
:1027E000FB68002B0ADA7B691800FEF70EF9FB681C
:1027F000180007F046FE01235B4200E07B691800E9
:10280000BD4607B080BC08BC03B0184780B584B093
:1028100000AF78607B681800FEF780F80300FB606B
:10282000FB683BB909235B42180007F02AFE01232D
:102830005B4214E0FB681800FEF791FD0300BB60EB
:10284000BB68002B06DABB68180007F01AFE0123EC
:102850005B4204E07B681800FEF7D7F800231800FD
:10286000BD4604B080BD80B586B000AFF860B960E9
:102870007A60FB681800FEF751F803007B617B6902
:102880003BB909235B42180007F0FBFD01235B42C3
:1028900012E07A68B9687B691800FEF7B9FD030099
:1028A0003B613B69002B06DA3B69180007F0E9FD44
:1028B00001235B4200E03B691800BD4606B080BDC5
:1028C00080B586B000AFF860B9607A60FB68180028
:1028D000FEF724F803007B617B693BB909235B4267
:1028E000180007F0CEFD01235B4212E07A68B96858
:1028F0007B691800FEF751FE03003B613B69002B2A
:1029000006DA3B69180007F0BCFD01235B4200E0DA
:102910003B691800BD4606B080BD80B586B000AFEB
:10292000F860B9607A60FB681800FDF7F7FF0300F4
:102930007B617B693BB909235B42180007F0A1FD6D
:1029400001235B423EE07B68022B0DD07B68022BAB
:1029500011DC7B68BBB17B68012B0CD17B69DB6828
:10296000BA68D318BB600FE07B691B695A6ABB6801
:10297000D318BB6008E016235B42180007F081FD06
:1029800001235B421EE0C046BB68002B07DA16231A
:102990005B42180007F075FD01235B4212E0BA6844
:1029A0007B6911001800FEF718FE03003B613B69CC
:1029B000002B06DA3B69180007F063FD01235B4238
:1029C00000E0BB681800BD4606B080BD80B584B08D
:1029D00000AF786039603A687B6811001800FEF734
:1029E000D3FE0300FB60FB68002B06DAFB681800CF
:1029F00007F047FD01235B4200E000231800BD46BD
:102A000004B080BD80B584B000AF78607B681800EA
:102A1000FEF754FD0300FB60FB68002B06DAFB6841
:102A2000180007F02EFD01235B4200E00023180090
:102A3000BD4604B080BD80B584B000AF7860396019
:102A40003A687B6811001800FEF7EEFD0300FB609A
:102A5000FB68002B06DAFB68180007F012FD012363
:102A60005B4200E0FB681800BD4604B080BD80B545
:102A700086B000AF78603960FDF712FF03007B611C
:102A80007B69013307D10C235B42180007F0F9FC86
:102A900001235B4227E07B691800FDF73FFF03003D
:102AA0003B6140F20023C0F22003796838691A00C4
:102AB000FEF73DFB0300FB60FB68002B0ADA7B6935
:102AC0001800FDF7A2FFFB68180007F0DAFC0123ED
:102AD0005B4208E03B691800FEF741FC7B69180087
:102AE000FDF793FF00231800BD4606B080BD80B5FA
:102AF00086B000AF786000237B61FDF7D1FE030054
:102B00003B613B69013306D10C235B42180007F09F
:102B1000B8FC002337E03B691800FDF7FFFE030017
:102B2000FB6080239A037968FB681800FEF7FFFAC0
:102B30000300BB60BB68002B1CDB40F20C2008F0DC
:102B400047FB03007B617B6943B9FB681800FEF714
:102B500006FC3B691800FDF758FF09E07B6940F26D
:102B60000C220021180007F0CFFC7B693A691A603B
:102B70007B6908E03B691800FDF747FFBB68180058
:102B800007F07FFC00231800BD4606B080BD80B56D
:102B900086B000AF78607B681B681800FDF7BEFE4A
:102BA00003007B617B6933B909235B42180007F09E
:102BB00068FC00234AE07B6840F204229B5893B1F2
:102BC0007B6840F208229B587A68D31804333B6133
:102BD0007B6840F208229B583A6952889A187B68B1
:102BE00040F208215A507B6840F204229B584BB1B6
:102BF0007B6840F208229A587B6840F204215B58B7
:102C00009A421CDB7B68191D7B6940F2FF12180099
:102C1000FEF72CFC0300FB60FB68002B05DCFB6867
:102C2000180007F02EFC002310E07B6840F204211E
:102C3000FA685A507B6840F20822002199507B685C
:102C400004337A6840F2082152589B181800BD4698
:102C500006B080BD80B584B000AF78607B681B682B
:102C60001800FDF75BFE0300FB60FB682BB909232E
:102C70005B42180007F005FC13E0FB680021180018
:102C8000FEF7ABFC031E0CDB7B6840F20822002140
:102C900099507B6840F208229A587B6840F20421E0
:102CA0005A50BD4604B080BD80B584B000AF786096
:102CB0007B681B681800FDF731FE0300FB60FB68B2
:102CC0003BB909235B42180007F0DBFB01235B42A1
:102CD00019E0FB681800FEF742FB0300BB607B684D
:102CE0001B681800FDF791FE7B68180008F0D6FA03
:102CF000BB68002B06DABB68180007F0C2FB012393
:102D00005B4200E000231800BD4604B080BD80B5E2
:102D100084B000AF78607B688BB9FDF779FC44F232
:102D20000002C2F2000241F67C53C0F2010311001E
:102D3000180008F06CF9FDF7BBFC002349E07B6844
:102D400018000EF063F8030040F20012934207D916
:102D500014235B42180007F094FB01235B4238E028
:102D60007B6819000020FDF7ABFE0300FB60FB68E9
:102D70003BB914235B42180007F083FB01235B423D
:102D800027E0FDF745FCFB681800FFF7B0FE0300E5
:102D9000BB60BB6843B9FB68180008F07FFAFDF719
:102DA00087FC01235B4214E0BB681800FFF77CFF3F
:102DB000F96844F20003C2F2000340F20012180066
:102DC0000EF0B6F8FB68180008F068FAFDF770FC22
:102DD00000231800BD4604B080BD80B584B000AFAC
:102DE000786039600023FB60FDF712FC44F20003B9
:102DF000C2F20003FB607B682BB13A68F9687B681C
:102E000018000EF095F8FDF753FC7B681800BD46DE
:102E100004B080BD80B582B000AF78607B687A680E
:102E20005A607B685A687B681A60C046BD4602B02B
:102E300080BD80B582B000AF786039607B685B6828
:102E40003A681A607B685A683B685A607B683A68DF
:102E50005A603B687A681A60C046BD4602B080BDC1
:102E600080B582B000AF78607B681B687A68D31A3F
:102E70005A425341DBB21800BD4602B080BD80B556
:102E800084B000AF78607B685BB941F65861C0F2EE
:102E9000010141F68053C0F201031B22180008F023
:102EA0007CFA05F051FE0300FB607B6800221A608B
:102EB0007B6804331800FFF7ADFFFB68180005F0CE
:102EC00047FEC046BD4604B080BD80B58AB000AFA5
:102ED000786039607B685BB941F66C61C0F20101D2
:102EE00041F68053C0F201033A22180008F055FA67
:102EF0003B68002B6BD005F027FE0300FB6109F057
:102F000038FC0300BBB141F66C62C0F2010241F62D
:102F10009853C0F201031100180008F078F841F648
:102F20006C61C0F2010141F6C453C0F201033D22BD
:102F3000180008F032FA05F007FE0300BB6109F043
:102F4000A0FD0300BBB941F66C62C0F2010241F67C
:102F5000C853C0F201031100180008F058F841F6F8
:102F60006C61C0F2010141F6C453C0F201033D227D
:102F7000180008F012FA05F0E7FD03007B6107F086
:102F800029FA0300BBB141F66C62C0F2010241F6BE
:102F90000063C0F201031100180008F038F841F690
:102FA0006C61C0F2010141F6C453C0F201033D223D
:102FB000180008F0F2F97B69180005F0C9FDBB693B
:102FC000180005F0C5FDFB69180005F0C1FD0023E0
:102FD0007B6209F056FD03003B6105F0B5FD03007F
:102FE0003B627B681B68012B68D07B680433180048
:102FF000FFF736FF03005BB941F66C61C0F20101D7
:1030000041F62863C0F201034622180008F0C5F912
:103010003B681BB902235B427B6252E03B690022A2
:103020001A633B69022118000AF09EF87B681A1D9A
:103030003B69143319001000FFF7FBFE05F084FD17
:103040000300FB6007F0C6F90300BBB141F66C62F8
:10305000C0F2010241F60063C0F201031100180042
:1030600007F0D5FF41F66C61C0F2010141F6C4538F
:10307000C0F201035922180008F08FF9FB6818000C
:1030800005F066FD3B68002B0BDD3B6958333A00C9
:10309000002118000AF048FC3B69583318000AF078
:1030A000B2FA3B6A180005F053FD09F04CF93B6990
:1030B0001B6B7B6205F048FD03003B627B680022CE
:1030C0001A603B6A180005F043FD7B6A1800BD4694
:1030D0000AB080BD80B584B000AF78607B685BB912
:1030E00041F68061C0F2010141F68053C0F2010354
:1030F0008222180008F051F97B681B68012B21D04F
:1031000005F022FD0300FB607B6801221A607B68EA
:1031100004331800FFF7A4FE030073B97B685B68F3
:10312000143BBB60BB6818000AF0A9F8FB681800E4
:1031300005F00EFD09F007F905E0FB68180005F041
:1031400007FD00E0C046BD4604B080BD80B582B03A
:1031500000AF78607B685B685A087B689B685B0897
:103160009A420FD17B681B79DB07DB0FDAB27B68F1
:103170001B7ADB07DB0FDBB29A4201D1002302E0AE
:10318000012300E002231800BD4602B080BD80B5D7
:1031900084B000AFF860B9607A60FB685BB941F653
:1031A000B061C0F2010141F69463C0F201032A222A
:1031B000180008F0F2F87B68002B0BDC41F6B061D8
:1031C000C0F2010141F6A463C0F201032B221800F2
:1031D00008F0E3F8FB685A6801210A405A60FB686E
:1031E0005B685B081A1C01231340DAB2FB680121FB
:1031F0000A4010001A7901218A43111C021C0A435B
:103200001A71FB689A6801210A409A60FB689B6802
:103210005B081A1C01231340DAB2FB6801210A4043
:1032200010001A7A01218A43111C021C0A431A72E7
:10323000FB68BA681A607B68072293431A00FB6830
:10324000DA60C046BD4604B080BD90B587B000AF1F
:10325000F860B9607A60FB685BB941F6C461C0F29E
:10326000010141F69463C0F201034622180008F000
:1032700094F8FB68DB681C00FB68180000F08AF912
:103280000300E31A7B617B690BB900237CE07A6958
:103290007B689A4201D27B697B60FB68DA68FB68D5
:1032A0009B685B08D31A1A007B6893421BD2FB68A9
:1032B0001A68FB689B685B08D3187A68B9681800BD
:1032C00007F08BF9FB689B685B081A007B68D318D2
:1032D0005B005A08FB6852009968012001400A43CC
:1032E0009A607B6850E0FB681A68FB689B685B0823
:1032F000D018FB68DA68FB689B685B08D31A1A0071
:10330000BB68190007F069F9FB681868FB68DA68A0
:10331000FB689B685B08D31A1A00BB689918FB68A6
:10332000DA68FB689B685B08D31A1A007B689B1AF3
:103330001A0007F052F9FB681B7ADB07DB0FDBB2E0
:10334000DB43DBB21A1C01231340DAB2FB68012114
:103350000A4010001A7A01218A43111C021C0A43F8
:103360001A72FB68DA68FB689B685B08D31A1A005C
:103370007B689B1A5B005A08FB6852009968012021
:1033800001400A439A607B681800BD4607B090BDB3
:1033900080B586B000AFF860B9607A60FB685BB951
:1033A00041F6D861C0F2010141F69463C0F2010315
:1033B000B822180007F0F1FFFB68180000F0EAF8E7
:1033C00003007B617B690BB900237CE07A697B6831
:1033D0009A4201D27B697B60FB68DA68FB685B68B4
:1033E0005B08D31A1A007B6893421BD2FB681A68E9
:1033F000FB685B685B08D1187A68BB68180007F047
:10340000ECF8FB685B685B081A007B68D3185B000C
:103410005A08FB6852005968012001400A435A606B
:103420007B6850E0FB681A68FB685B685B08D11832
:10343000FB68DA68FB685B685B08D31A1A00BB6834
:10344000180007F0CAF8FB68DA68FB685B685B087D
:10345000D31A1A00BB689818FB681968FB68DA6809
:10346000FB685B685B08D31A1A007B689B1A1A001A
:1034700007F0B3F8FB681B79DB07DB0FDBB2DB433C
:10348000DBB21A1C01231340DAB2FB6801210A40A7
:1034900010001A7901218A43111C021C0A431A7177
:1034A000FB68DA68FB685B685B08D31A1A007B6804
:1034B0009B1A5B005A08FB685200596801200140C2
:1034C0000A435A607B681800BD4606B080BD90B5BF
:1034D00083B000AF78600A00FB1C1A707B6863B988
:1034E00041F6EC61C0F2010141F69463C0F20103C0
:1034F00040F21312180007F050FF7B68DB681C00D5
:103500007B68180000F046F803009C4201D10023BC
:103510003CE07B681A687B689B685B08D318FA1CE0
:1035200012781A707B689B685B081A007B68DB68FE
:10353000013B9A421BD17B681B7ADB07DB0FDBB2B6
:10354000DB43DBB21A1C01231340DAB27B68012192
:103550000A4010001A7A01218A43111C021C0A43F6
:103560001A727B689A6801210A409A600DE07B68B4
:103570009B685B085A1C53005B081A007B6852006A
:103580009968012001400A439A6001231800BD4652
:1035900003B090BD80B584B000AF78607B68180040
:1035A000FFF7D4FD030013B1012B02D004E0002388
:1035B00019E07B68DB6816E07B689B685B08FB6052
:1035C0007B685B685B08BB60FA68BB689A4203D99A
:1035D000FA68BB68D31A06E07B68DB681900FA68F2
:1035E000BB68D31ACB181800BD4604B080BD80B5A7
:1035F00086B000AFF860B9607A603B60FB687B61C1
:103600007B695BB942F2C411C0F2010141F6047357
:10361000C0F201031622180007F0BFFE7B683B6171
:103620003B6913B13B68042B01D000230DE07B699B
:103630001B6C9B683A6912881100FA681000984761
:1036400003009AB23B695A803B681800BD4606B039
:1036500080BD80B586B000AFF860B9607A603B602D
:10366000FB687B617B695BB942F2D011C0F201015A
:1036700041F60473C0F201032622180007F08DFE04
:103680007B683B613B6913B13B68042B01D000238D
:103690000AE07B691B6C5B683A69128811003A6921
:1036A0005288F86898473B681800BD4606B080BD50
:1036B00080B586B000AFF860B9607A60FB687B6166
:1036C0007B695BB942F2DC11C0F2010141F604737F
:1036D000C0F201033722180007F05FFE7B683B61F0
:1036E0003B6913B901235B420AE07B691B6C1B68D1
:1036F0003A69128811003A695288F868984700239D
:103700001800BD4606B080BD80B584B000AFF8603B
:10371000B9607A6044F64C33C2F2000319221A757C
:1037200044F64C33C2F200030022DA6144F64C3313
:10373000C2F2000300221A6244F64C33C2F20003C4
:1037400000225A6244F64C33C2F2000300229A620D
:1037500044F64C33C2F200030022DA6244F64C33E2
:10376000C2F2000343F2EF52C0F200021A6344F6C1
:103770004C33C2F2000343F25362C0F200025A63B8
:1037800044F64C33C2F2000343F2B162C0F20002CD
:103790009A6344F64C33C2F20003BA681A6444F6E2
:1037A0004C33C2F200037A68DA63F96844F64C33AA
:1037B000C2F200030322180005F015FC00231800D4
:1037C000BD4604B080BDB0B586B002AFF860B96048
:1037D0007A603B6044F64C33C2F200031B6C5BB969
:1037E00042F2EC11C0F2010141F61473C0F2010380
:1037F0006B22180007F0D1FD44F64C33C2F20003EF
:103800001B6CDB6893B144F64C33C2F200031B6CB3
:10381000DC687D68BA68F96844F64C30C2F2000092
:103820003B6800932B00A047030001E006235B42A6
:103830001800BD4604B0B0BD90B583B000AF78604D
:10384000396044F64C33C2F200031B6C5BB942F2A0
:103850000021C0F2010141F61473C0F201037F227E
:10386000180007F09AFD44F64C33C2F200031B6CBB
:103870005B697BB144F64C33C2F200031B6C5C699C
:103880003A68796844F64C33C2F200031800A04746
:10389000030001E006235B421800BD4603B090BD63
:1038A00090B583B000AF7860396044F64C33C2F213
:1038B00000031B6C5BB942F21421C0F2010141F616
:1038C0001473C0F201038A22180007F066FD44F663
:1038D0004C33C2F200031B6C1C683A68796844F6EA
:1038E0004C33C2F200031800A047C046BD4603B0E7
:1038F00090BD90B583B000AF7860396044F64C332A
:10390000C2F200031B6C5BB942F22021C0F201013C
:1039100041F61473C0F201039022180007F03DFD38
:1039200044F64C33C2F200031B6C5C683A68796859
:1039300044F64C33C2F200031800A047C046BD460F
:1039400003B090BD80B582B000AF786044F64C33D0
:10395000C2F200031B6C5BB942F23021C0F20101DC
:1039600041F61473C0F201039622180007F015FD0A
:1039700044F64C33C2F200031B6C9A68796844F633
:103980004C33C2F200031800904703001800BD46F4
:1039900002B080BD80B582B000AF786044F64C3391
:1039A000C2F200031B6C5BB942F23C21C0F2010180
:1039B00041F61473C0F201039D22180007F0EDFCDC
:1039C0007B681B785BB2502B07D07B681B785BB29F
:1039D000702B02D00A235B4213E044F64C33C2F250
:1039E00000031B6C9B6913B906235B4209E044F694
:1039F0004C33C2F200031B6C9B697A681000984735
:103A000003001800BD4602B080BD90B587B000AF7E
:103A1000786000237B610C23FB1800221A600022CF
:103A20009A8013217B187A6812781A707B181B7899
:103A30005BB25A1C45F2F433C0F20103D3181B7871
:103A40005BB2DBB21A0003231340022B04D17B18B4
:103A50001B785BB2203B03E01323FB181B785BB29F
:103A60005AB20C23FB181A7012217B187A6852780C
:103A70001A707B181B785BB25A1C45F2F433C0F203
:103A80000103D3181B785BB2DBB21A000323134087
:103A9000022B04D17B181B785BB2203B03E012237E
:103AA000FB181B785BB25AB20C23FB185A707B6868
:103AB00018000DF0ABF903007B617B69052B00DD7D
:103AC00005237B617B69023B7B617B6802331B784A
:103AD0005BB22E2B03D00C23FB182E229A707B682E
:103AE000991C7A690C243B1918000DF0BBF93B199D
:103AF0001800FFF74FFF03001800BD4607B090BD48
:103B000080B500AF41F62C73C0F20103180007F036
:103B10007EFA41F63C73C0F20103180007F077FA11
:103B200041F66873C0F20103180007F070FA41F61D
:103B3000A873C0F20103180007F069FA41F6C873D0
:103B4000C0F20103180007F062FA42F23803C0F233
:103B50000103180007F05BFA42F28003C0F2010390
:103B6000180007F054FA42F2E403C0F2010318000F
:103B700007F04DFAC046BD4680BD80B584B000AFA9
:103B8000786039607B68022B02DCFFF7B9FF23E025
:103B90003B6808331B681800FFF737FF0300FB6022
:103BA000FB68002B0DDA3B6808331A6842F2FC030D
:103BB000C0F201031100180007F029FAFFF7A0FF77
:103BC0000AE03B6808331968FA6842F21813C0F239
:103BD0000103180007F01BFABD4604B080BD80B594
:103BE00084B000AF786039607B68032B02DCFFF79C
:103BF00087FF81E03B6808331B68180003F0C8FFAB
:103C00000300C3B93B6808331B681800FFF7FDFECB
:103C10000300FB60FB68002B15DA3B6808331A6869
:103C200042F2FC03C0F201031100180007F0EFF9A3
:103C3000FFF766FF60E03B6808331B6818000CF074
:103C400065FF0300FB603B680C331A6842F22413E3
:103C5000C0F20103110018000DF08CF8030013B935
:103C60000023BB6042E03B680C331A6842F22C131D
:103C7000C0F20103110018000DF07CF8030013B925
:103C80000123BB6032E03B680C331A6842F2341304
:103C9000C0F20103110018000DF06CF8030013B915
:103CA0000223BB6022E03B680C331A6842F24413E3
:103CB000C0F20103110018000DF05CF8030013B905
:103CC0000323BB6012E03B680C331A6842F25413C2
:103CD000C0F20103110018000DF04CF8030013B9F5
:103CE0000423BB6002E0FFF70BFF05E0BA68FB6846
:103CF00011001800FFF7D4FDBD4604B080BD80B5AB
:103D000084B000AF786039607B68022B02DCFFF77B
:103D1000F7FE44E03B6808331B68180003F038FFE7
:103D20000300C3B93B6808331B681800FFF76DFE3A
:103D30000300FB60FB68002B15DA3B6808331A6848
:103D400042F2FC03C0F201031100180007F05FF912
:103D5000FFF7D6FE23E03B6808331B6818000CF021
:103D6000D5FE0300FB60FB681800FFF7EBFD0300C6
:103D7000BB60BB68012B09D1FA6842F26013C0F244
:103D800001031100180007F042F908E0FA6842F256
:103D90007013C0F201031100180007F038F9BD4696
:103DA00004B080BD80B584B000AF786039607B68B6
:103DB000032B02DCFFF7A4FE6BE03B6808331B68B3
:103DC000180003F0E5FE0300C3B93B6808331B6825
:103DD0001800FFF71AFE0300FB60FB68002B15DAE2
:103DE0003B6808331A6842F2FC03C0F20103110079
:103DF000180007F00CF9FFF783FE4AE03B68083330
:103E00001B6818000CF082FE0300FB603B680C335B
:103E10001A6842F28013C0F20103110018000CF07E
:103E2000A9FF030063B13B680C331A6842F28813A0
:103E3000C0F20103110018000CF09CFF030013B93D
:103E40000123BB601FE03B680C331A6842F28C13FD
:103E5000C0F20103110018000CF08CFF030063B1E5
:103E60003B680C331A6842F29013C0F20103110050
:103E700018000CF07FFF030013B90023BB6002E0C1
:103E8000FFF73EFE05E0BA68FB6811001800FFF777
:103E900030FDBD4604B080BD80B582B000AF786013
:103EA00039607B68022B02DCFFF72AFE52E03B6898
:103EB00004331A6842F29413C0F20103110018008F
:103EC0000CF058FF030033B93A687B681100180002
:103ED000FFF753FE3EE03B6804331A6842F2981342
:103EE000C0F20103110018000CF044FF030033B9C5
:103EF0003A687B6811001800FFF771FE2AE03B6802
:103F000004331A6842F2A013C0F201031100180032
:103F10000CF030FF030033B93A687B6811001800D9
:103F2000FFF7EDFE16E03B6804331A6842F2A8136F
:103F3000C0F20103110018000CF01CFF030033B99C
:103F40003A687B6811001800FFF72CFF02E0FFF7CA
:103F5000D7FDC046BD4602B080BD80B584B000AF7D
:103F6000786039607B685BB942F23C41C0F2010184
:103F700042F24823C0F20103CA22180007F00DFAEA
:103F80003B6800221A607B681800FFF703FB030000
:103F9000FB60FB680BB9002319E07B681A687B683B
:103FA0005B685B08D2183B681A607B68DA687B68DC
:103FB0005B685B08D31A1A00FB68934201D2FB6866
:103FC00005E07B68DA687B685B685B08D31A1800D9
:103FD000BD4604B080BD80B584B000AF78600A00F3
:103FE000BB1C1A807B685BB942F25841C0F20101E8
:103FF00042F24823C0F20103E422180007F0CDF991
:104000007B681800FFF7C6FA0300FB60FB680BB97A
:1040100000234BE0BB1C1B88FA689A4202D2BB1CEF
:10402000FA681A807B68DA687B685B685B08D21A7A
:10403000BB1C1B889A4212DD7B685B685B081A0018
:10404000BB1C1B88D3185B005A087B685200596858
:10405000012001400A435A60BB1C1B8826E07B6894
:10406000DB6899B27B685B685B089AB2BB1C8A1AF2
:104070001A807B681B79DB07DB0FDBB2DB43DBB22B
:104080001A1C01231340DAB27B6801210A40100098
:104090001A7901218A43111C021C0A431A717B6898
:1040A0005A6801210A405A60BB1C1B881800BD4693
:1040B00004B080BD90B585B000AF78600A00BB1C2D
:1040C0001A807B6863B942F27441C0F2010142F286
:1040D0004823C0F2010340F20412180007F05DF912
:1040E0007B68DB689CB27B681800FFF753FA03001B
:1040F0009AB20E217B18A21A1A807A18BB1C128859
:104100001B889A421BD2BB1C7A1812881A8042F272
:104110005823C0F20103180006F079FF7B68DA68C3
:1041200042F26423C0F201031100180006F06FFF91
:1041300042F28C23C0F20103180006F068FF7B688E
:10414000DA687B689B685B08D21ABB1C1B889A42A2
:1041500012DD7B689B685B081A00BB1C1B88D318A8
:104160005B005A087B6852009968012001400A43AD
:104170009A60BB1C1B8829E07B681B7ADB07DB0F7E
:10418000DBB2DB43DBB21A1C01231340DAB27B68DB
:1041900001210A4010001A7A01218A43111C021CD5
:1041A0000A431A72BB1C1A887B68D9687B689B68B3
:1041B0005B08CB1AD31A5B005A087B6852009968D7
:1041C000012001400A439A60BB1C1B881800BD46B1
:1041D00005B090BD80B588B000AFF860B9607A6076
:1041E0003B60FB6863B942F29441C0F2010142F2C4
:1041F0009023C0F2010340F23512180007F0CDF809
:10420000FB68BB61BB6963B942F29441C0F2010132
:1042100042F2A023C0F2010340F23812180007F066
:10422000BCF87B68FB613B687B611DE0BB691B6C74
:10423000DB68BA691000984703003B613B690133B2
:1042400016D03B69DAB2FB691A70FB690133FB6176
:104250003B68013B3B60BB691B8B1A00402313404A
:1042600013B13B690A2B05D03B68002BDED102E07D
:10427000C04600E0C0467A693B68D31A1800BD46C4
:1042800008B080BD80B588B000AFF860B9607A60D2
:104290003B60FB6863B942F2A441C0F2010142F203
:1042A0009023C0F2010340F26212180007F075F883
:1042B000FB68BB61BB6963B942F2A441C0F2010172
:1042C00042F2A023C0F2010340F26512180007F089
:1042D00064F87B68FB613B687B611FE0BB691B8BFB
:1042E0001A004023134053B1FB691B780A2B06D1F7
:1042F000BB691B6C9B68BA690D2110009847BB69AC
:104300001B6C9B68FA69127851B2BA691000984721
:10431000FB690133FB613B68013B3B603B68002B61
:10432000DCD17A693B68D31A1800BD4608B080BD5D
:1043300080B588B000AFF860B9607A603B60FB6818
:1043400063B942F2B441C0F2010142F29023C0F2DB
:10435000010340F28F12180007F01FF83B680BB9F9
:1043600000236AE0FB68FB61FB690BB17B6863B902
:1043700042F2B441C0F2010142F2B423C0F201039F
:1043800040F29412180007F008F8FB691B6DBB613E
:10439000FB681B8B1A0041F200031340002B3BD03B
:1043A000FB699B6C9B011B0C9BB21A003B68934200
:1043B0001CD942F25823C0F20103180006F027FE70
:1043C000F968FB699B6C9B011B0C9BB23A6842F23B
:1043D000E020C0F2010006F01AFE42F28C23C0F287
:1043E0000103180006F013FE002326E0BB69180045
:1043F000FFF7D0F803007B617A693B689A420BD2E1
:104400003B689AB2BB699A83BB691033012252425E
:1044100011001800FEF759FD04F096FB03003B6104
:10442000BB693A6879681800FEF7B2FF03007B6148
:104430003B69180004F08CFB7B691800BD4608B08E
:1044400080BD90B587B000AFF860B9607A603B601E
:1044500000237B61FB6863B942F2C441C0F20101F1
:1044600042F29023C0F2010340F2CB12180006F092
:1044700094FF3B680BB9002351E0FB683B613B694B
:104480000BB17B6863B942F2C441C0F2010142F250
:10449000B423C0F2010340F2CF12180006F07DFFF2
:1044A0003B695B6D7B617B6963B942F2C441C0F2D9
:1044B000010142F25433C0F2010340F2D11218005C
:1044C00006F06BFF08F0DDFA03002BB13B691B8B94
:1044D0001A00402313403BB13B687A68B968F8681A
:1044E000FFF7D0FE03001AE07B695B69012B01D165
:1044F000002314E07B6901225A613B691B6C1C6933
:104500003A687968386944F20003A0477B69183338
:104510000122524211001800FEF7D7FC3B68180038
:10452000BD4607B090BD90B589B000AFF860B960E6
:104530007A603B600023BB613B687B610023FB61C9
:104540003B680BB900237CE0FB6863B942F2E441AD
:10455000C0F2010142F29023C0F2010340F2FE12C8
:10456000180006F01AFFFB683B613B690BB17B68E2
:1045700063B942F2E441C0F2010142F2B423C0F255
:10458000010340F20022180006F007FF3B695B6D53
:10459000BB61BB6963B942F2E441C0F2010142F27E
:1045A0005433C0F2010340F20322180006F0F5FE76
:1045B00008F067FA03002BB13B691B8B1A004023FC
:1045C00013403BB13B687A68B968F868FFF75AFE58
:1045D000030036E0BB695B69012B01D1002330E0A9
:1045E000BB6901225A6128E0B8697A68FB69D3186F
:1045F0003A681900FEF729FE0200BB691A61BB691F
:104600001B69FA69D318FB61BB691B693A68D31A45
:104610003B603B691B6C1C697A68FB69D118BB69FC
:104620001A69386944F20003A047BB6918330122B4
:10463000524211001800FEF748FC3B68002BD3D112
:104640007B691800BD4609B090BD90B58BB000AF36
:10465000F860B9607A603B60FB6863B942F204516C
:10466000C0F2010142F29023C0F2010340F238226D
:10467000180006F092FE3B680BB9002351E0FB687E
:104680007B627B6A0BB17B6863B942F20451C0F272
:10469000010142F2B423C0F2010340F23C221800AF
:1046A00006F07BFE7B6A5B6D3B6204F04DFA030013
:1046B000FB613B6A5B693BBB3B6A01225A613B6A17
:1046C0003A6879681800FEF7C0FD0300BB61FB691A
:1046D000180004F03DFA00237B613B6A1422BA18EB
:1046E00011001800FFF739FC03001A003B6A1A6139
:1046F0007B6A1B6C1C6979693B6A1A69786A48F2A3
:104700000003A047BB690CE03B6A3A68796818006F
:10471000FEF79BFD0300BB61FB69180004F018FA6B
:10472000BB691800BD460BB090BDFFFF80B586B0D9
:1047300000AF78600A00BB1C1A8000237B617B6895
:1047400063B942F22051C0F2010142F29023C0F25B
:10475000010340F27222180006F01FFE7B683B61E5
:104760003B694C229B5A7BBBBB1C1B8848F2000256
:10477000934219D142F26833C0F20103180006F0E7
:1047800046FC7A6842F27433C0F20103110018004B
:1047900006F03DFC42F28C23C0F20103180006F043
:1047A00036FC0A235B42DAE07A6844F28523C0F2E1
:1047B000000353637B681B8B44F2000213439AB2DD
:1047C0007B681A830023CAE03B694C229B5A3F2B2B
:1047D00004D83B6948229B1840229A80BB1C1B8846
:1047E00044F20002934200D078E03B691B6C5B68A6
:1047F000386944F20002202198470300FB60FB68FF
:10480000012B2BD13B694C229B5A2433180006F014
:10481000DFFC03007B617B6963B942F22051C0F287
:10482000010142F25433C0F2010340F29822180011
:1048300006F0B3FD78697B69243319003B694C228B
:104840009B5A1A00FEF7A3FC3B697A695A657A689D
:1048500044F22753C0F20003536324E0242006F0FF
:10486000B7FC03007B617B6963B942F22051C0F25F
:10487000010142F25433C0F2010340F2A9221800B0
:1048800006F08BFD3B697A695A657A6844F24343C6
:10489000C0F2000353633B691B6C5B68386944F2E8
:1048A0000002032198477B6900225A617B6900223C
:1048B0001A617B6910220021180005F025FE7B6932
:1048C00018331800FEF7DBFA7B681B8B44F20002FA
:1048D00013439AB27B681A83002340E03B694C2261
:1048E0009B5A2433180006F073FC03007B617B693C
:1048F00063B942F22051C0F2010142F25433C0F2D6
:10490000010340F2C422180006F047FD7B69002233
:104910005A617B6900221A6178697B692433190026
:104920003B694C229B5A1A00FEF731FC3B697A69BD
:104930005A657A6844F24B63C0F2000353637B68A4
:104940001B8B094A13439AB27B681A833B691B6C21
:104950005B68386948F20002032198470023180079
:10496000BD4606B080BDC0460080FFFF80B584B064
:1049700000AF78600A00BB1C1A800023FB607B68D4
:1049800063B942F23451C0F2010142F29023C0F205
:10499000010340F2E722180006F0FFFC7B68BB60D1
:1049A000BB689A6C4FF60043C0F2FF3313407BBBE9
:1049B000BB1C1B8842F20002934219D142F26833B9
:1049C000C0F20103180006F022FB7A6842F2A83315
:1049D000C0F201031100180006F019FB42F28C230B
:1049E000C0F20103180006F012FB0A235B4281E0CB
:1049F0007A6844F2D513C0F2000313637B681B8B03
:104A000041F2000213439AB27B681A83002371E0DB
:104A1000BB689B6C9B011B0C9BB23F2B0AD8BA68EE
:104A2000916C40F2FF33CFF600430B4080214902E6
:104A30000B439364BB689B6C9B011B0C9BB22033A4
:104A4000180006F0C5FB0300FB60FB6863B942F287
:104A50003451C0F2010142F2DC33C0F2010340F2F2
:104A60000232180006F099FCF868FB681E33190042
:104A7000BB689B6C9B011B0C9BB21A00FEF787FB6B
:104A8000BB68FA681A657A6844F23133C0F20003F1
:104A90001363BB1C1B8842F20002934211D17B6856
:104AA0001B8B42F2000213439AB27B681A83BB68E5
:104AB0001B6C5B68B86842F2000203219847002330
:104AC00018E0FB6800229A83FB6810331800FEF799
:104AD000D6F97B681B8B41F2000213439AB27B68C4
:104AE0001A83BB681B6C5B68B86841F20002032143
:104AF000984700231800BD4604B080BD80B584B03F
:104B000000AF78600A00BB1C1A807B6863B942F270
:104B10004851C0F2010142F29023C0F2010340F279
:104B20002D32180006F039FC7B68FB607B680022A0
:104B30001A63FB681B6D0BB900233EE0BB1C1B888E
:104B400042F2000293420FD17B681B8B1D4A134037
:104B50009AB27B681A83FB681B6C5B68F86842F248
:104B60000002072198470EE07B681B8B164A134012
:104B70009AB27B681A83FB681B6C5B68F86841F229
:104B8000000207219847FB681B6DBB60BB6863B9D7
:104B900042F24851C0F2010142F2DC33C0F201039B
:104BA00040F24832180006F0F8FBBB68180006F027
:104BB00075FBFB6800221A6500231800BD4604B08F
:104BC00080BDC046FFDFFFFFFFEFFFFF80B584B071
:104BD00000AF78600A00BB1C1A807B6863B942F2A0
:104BE0006051C0F2010142F29023C0F2010340F291
:104BF0005B32180006F0D1FB7B68FB607B6800220B
:104C00005A63FB685B6D0BB900234AE0FB685B6D80
:104C1000BB60BB6863B942F26051C0F2010142F26D
:104C20005433C0F2010340F26532180006F0B5FBC0
:104C3000BB1C1B8848F2000293420FD17B681B8B80
:104C40005B045B0C9AB27B681A83FB681B6C5B6825
:104C5000F86848F200020721984713E0BB68183350
:104C60001800FEF737FA7B681B8B104A13409AB284
:104C70007B681A83FB681B6C5B68F86844F200026F
:104C800007219847BB68180006F008FBFB68002264
:104C90005A65FB68583308220021180005F034FCDF
:104CA00000231800BD4604B080BDC046FFBFFFFF13
:104CB00080B584B000AF78600023FB607B6863B987
:104CC00042F27851C0F2010142F29023C0F2010396
:104CD00040F28C32180006F060FB7B68BB60BB685A
:104CE0001B6C1B6963B942F27851C0F2010142F2B8
:104CF000F033C0F2010340F28E32180006F04DFB93
:104D0000BB6800221A65BB6800225A65BB681B6C31
:104D10001B6853B1BB681B6C1B68BA684432110036
:104D2000BA68100098470300FB60FB681800BD4696
:104D300004B080BD80B584B000AF78600A00BB1CB1
:104D40001A807B6863B942F28851C0F2010142F2D5
:104D50009023C0F2010340F2A532180006F01DFBBB
:104D60007B68FB607B681B8B1A004FF200031340CB
:104D70000BB1002359E0BB1C1B8841F20002134019
:104D800043B17B681B8B41F2000213439AB27B68EC
:104D90001A8307E07B681B8B42F2000213439AB22E
:104DA0007B681A83BB1C00229B5E002B07DA7B68A2
:104DB0001B8B204A13439AB27B681A8307E07B68F7
:104DC0001B8B44F2000213439AB27B681A83BB1C0C
:104DD0001B88402213402BB97B681B8B1A00402391
:104DE000134033B17B681B8B402213439AB27B681C
:104DF0001A83FB681B6D53B97B681B8B43F200025F
:104E000013409AB27B6811001800FFF7AFFDFB68F2
:104E10005B6D4BB97B681B8B9B0B9B039AB27B68CA
:104E200011001800FFF782FC00231800BD4604B0F3
:104E300080BDC0460080FFFF80B584B000AF7860C1
:104E40007B6863B942F29851C0F2010142F29023AB
:104E5000C0F2010340F2DA32180006F09EFA7B68D5
:104E6000FB607B689B7E012B02D901235B4229E01A
:104E70007B681B8B43F2000213409AB27B681100DF
:104E80001800FFF73BFE7B681B8B9B0B9B039AB2C2
:104E90007B6811001800FFF799FEFB680022DA61B9
:104EA000FB6800221A62FB681B6C5B68F8680022D2
:104EB000042198477B68DB8A102293439AB27B686F
:104EC000DA8200231800BD4604B080BD90B589B0D9
:104ED00000AFF860B9607A600023FB61FB6863B9DA
:104EE00042F2A851C0F2010142F29023C0F2010344
:104EF00040F25C42180006F050FAFB68BB61BB68E8
:104F0000092B51D8BB689A00314BD3181B689F46B8
:104F1000FB68DB8A202213439AB2FB68DA8252E0F4
:104F2000FB68DB8A202293439AB2FB68DA824AE06C
:104F30007B68002B42D07B687B617B695B689B014F
:104F40001B0C9AB2BB699B6C9B011B0C9BB29A42D7
:104F500006D17B691A89BB694C215B5A9A4205D0FC
:104F6000BB699B7E13B107235B422DE0BB697A6965
:104F7000443313CA13C3BB691B6C1B687968BA69D5
:104F8000100098471AE07B68D3B1BB695833796841
:104F90000822180005F021FB12E07B6893B17B68C2
:104FA00040F243121A800DE0BB691B6C5B687A68A3
:104FB000B968B86998470300FB6104E0C04602E0A5
:104FC000C04600E0C046FB691800BD4609B090BD70
:104FD0001424010080B586B000AFF860B9607A6033
:104FE0003B60FB6863B942F2BC51C0F2010142F27E
:104FF000A023C0F2010340F2AF52180006F0CDF931
:10500000FB687B617B6900221A757B690022DA618B
:105010007B6900221A627A6944F6B143C0F2000348
:1050200053627A6944F63553C0F2000393627A6999
:1050300044F63963C0F20003D3627B6900221A632D
:105040007B6900225A637A6944F6CD63C0F200039B
:1050500093637B693A68DA637B689AB2B9687B6963
:10506000180003F0C0FF03003B613B691800BD4618
:1050700006B080BD90B58BB000AF786039607B68BA
:1050800063B942F2D451C0F2010142F2A023C0F24E
:10509000010340F2D452180006F07FF93B68FF226A
:1050A0001340042B00D1B0E000DD02E1032B06D059
:1050B00000DDFEE0012B02D0022B5FD0F9E00023DF
:1050C000BB617B681B6D7B617B6963B942F2D45124
:1050D000C0F2010142F2DC33C0F2010340F2E052BF
:1050E000180006F05AF93B681B12BB61BB6973B12B
:1050F00003F02AFD03003B617B69BA6992B211009B
:105100001800FEF7D7FF3B69180003F021FD7B690B
:105110001800FEF73FFA0300BB61BB69002B00D10A
:10512000C9E07B681B8B1A0041F20003134083B176
:105130007B699B8B6BB17B699B8B1A00BB6993422C
:1051400007D37B6900229A837B6910331800FDF72F
:10515000C1FF7B68DB692BB17B68DB697A68B96961
:10516000100098477B689B6D002B00D1A5E07B6801
:105170009A6D7B68DB6D180090479EE000233B62D0
:105180007B685B6DFB61FB6963B942F2D451C0F28D
:10519000010142F25433C0F2010340F209621800E7
:1051A00006F0FBF8FB691800FEF7F4F903003B6218
:1051B0003B6AD3B9FB6900225A617B681B6A2BB139
:1051C0007B681B6A7A680021100098477B681B8BFC
:1051D0001A0044F200031340002B00D16FE0FB697A
:1051E00018331800FDF776FF69E07B681B6C1C69BB
:1051F000FB69243319007B681B8B1A004CF20003F7
:1052000013403A6A7868A0475CE07B685B6D7B621C
:105210007B6A63B942F2D451C0F2010142F25433C5
:10522000C0F2010340F22C62180006F0B6F87B6A67
:1052300000225A617B681B6A2BB17B681B6A7A6803
:105240000021100098477B681B8B1A0044F2000372
:1052500013402BB17B6A18331800FDF73BFF31E098
:105260007A6A7B6A1B699BB219001000FEF7B3FED5
:105270007B6A1800FEF78EF9030013B37B6A0122E4
:105280005A610023FB607B6A0C22BA1811001800D7
:10529000FEF763FE03001A007B6A1A617B681B6CD1
:1052A0001C69F9687B6A1A69786848F20003A047AC
:1052B00007E0C04606E0C04604E0C04602E0C04643
:1052C00000E0C046C046BD460BB090BD80B582B080
:1052D00000AF78607B681B687A68D31A5A425341E2
:1052E000DBB21800BD4602B080BD80B584B000AF0F
:1052F00078600023FB607B68BB6005E0BB681B68CF
:10530000BB60FB680133FB60BB681B687A689A422C
:10531000F4D1FB681800BD4604B080BD80B500AF75
:1053200042F2E853C0F20103180005F070FE0023BA
:105330001800BD4680BD80B500AF05F01BFA002304
:105340001800BD4680BD80B582B000AF786006E031
:1053500042F2F053C0F20103180005F058FE7B68DA
:105360005A1E7A60002BF3D1C046C046BD4602B03B
:1053700080BD90B587B000AFF8607A603B600B24C9
:105380003B190A1C1A703B191B78180006F081FCA7
:1053900003007B617B6904333B61FB683A691A60F7
:1053A000FB683A1912781A72FB687A685A60FB68CF
:1053B0003A68DA60FB6800221A61C046BD4607B051
:1053C00090BD80B58AB000AF7860396000237B6201
:1053D0003B6800221A613B68DB6813B13B681B7AAB
:1053E0000BB900234AE03B681B687B617B6823B9EB
:1053F0007B693B6201237B6201E07B683B6203F0D7
:10540000A3FB03003B617B6A93B93B6A0C3BFB60E7
:10541000FB681B7A1A0080239A4313003A68127AB9
:10542000934205D03B69180003F092FB002325E06E
:105430000023BB613B685B68FB613B6A1B683B62A6
:105440003A6A7B699A4202D100233B620EE0BB6953
:105450000133BB61FB691A1DFA613A6A1A603B6845
:10546000DB68BA699A4200D0E7E7C0463B6918009A
:1054700003F06EFB3B68BA691A613B6A1800BD46CF
:105480000AB080BDF0B5C64600B5BCB002AF00237F
:10549000E422BA18136042F2F453C0F20103D82494
:1054A0003A1913609023FA18B023F8180823012141
:1054B000FFF75FFF0823D422B9180B603B191B6864
:1054C00014003A1912683919096842F2FC50C0F206
:1054D000010005F09CFD3B191B681800FFF733FF26
:1054E00042F24463C0F20103180005F090FDB023BE
:1054F000FA18E4243B191B6811001800FFF761FF3C
:1055000003003A1913600023E022BA181360E1E0A7
:105510009023FB18E022BA1812689200D3580C3B73
:10552000D0243A19136003F00FFB0300CC217A1842
:1055300013603B191B681B7A1A0080239A431300DF
:10554000B022BA18127A934205D07B181B68180053
:1055500003F0FEFAB8E0D0243B1919683B1D8C22F9
:10556000180005F03AF8CC23FB181B68180003F06C
:10557000EFFA3B191B68C8243A1913603B191A68E3
:105580003B191B6835215B5CD4217918096842F20C
:105590008460C0F2010000931300082205F037FD7B
:1055A0003B191B6834229A5CC7203B1807210A402C
:1055B0001A703B181B78022B07D142F29063C0F29D
:1055C0000103180005F023FD32E0C723FB181B7808
:1055D000042213403BB142F29C63C0F20103180065
:1055E00005F015FD24E0C723FB181B783BB942F2F8
:1055F000A863C0F20103180005F009FD18E0C723F5
:10560000FB181B78012B07D142F2B463C0F20103EF
:10561000180005F0FCFC0BE0C723FB181B78032BDC
:1056200006D142F2C063C0F20103180005F0EFFC9E
:10563000C823FB181B689B6ADC22BA18136005E0BC
:10564000DC22BB181B680133BA181360DC243B1939
:105650001B681B78232BF3D0C8203B181B68DA6A21
:105660003B181B689B6A19003B181B68DB69CB1A47
:10567000D6183B181B68DB6A98463B181B68DA6A29
:105680003B181B689B6A19003B191B68CB1AD3187F
:1056900064225A433B181B68DB6AB2FBF3F43B18E5
:1056A0001B685D6D3B181B681B6B180004F0AAFE9D
:1056B000030042F2CC60C0F2010001930095230088
:1056C0004246310005F0A3FCE022BB181B68013301
:1056D000BA181360B023FB181B69E022BA181268CD
:1056E0009A4200DA14E7E423FB181B68002B00D071
:1056F000FDE600231800BD463AB080BCB846F0BDB8
:1057000080B584B000AF78607B681B68FB601AE0EE
:10571000FB68143BBB60BA6842F2F463C0F2010359
:105720000821180005F073FCFB681B687A689A4230
:1057300006D042F2FC63C0F20103180005F067FCDA
:10574000FB681B68FB60FA687B689A42E0D1C04640
:10575000C046BD4604B080BDB0B596B002AF0023D0
:10576000FB6442F20073C0F201037B643A00202321
:10577000F81808230221FFF7FCFD08233B647B6C2B
:105780003A6C396C42F20C70C0F2010005F03FFC3B
:105790003B6C1800FFF7D7FD42F22873C0F20103FB
:1057A000180005F034FC2023FA18FB6C11001800D7
:1057B000FFF707FE0300FB640023BB6460E03B00CF
:1057C000BA6C9200D3580C3BFB6303F0BDF90300A5
:1057D000BB63FB6B1B7A1A0080239A4313002022C1
:1057E000BA18127A934204D0BB6B180003F0B0F9D8
:1057F00043E0BB6B180003F0ABF9FB6B7B637B6B87
:1058000014331800FFF762FD03000BBB7C6B7B6B4E
:105810009B8B1D007B6B14331800FFF766FD0300A4
:10582000396C42F24070C0F20100019300952300F0
:10583000082205F0ECFB7B6B14331800FFF760FFC8
:1058400042F25073C0F20103180005F0E0FB14E0CF
:105850007C6B7B6B9B8B1D007B6B14331800FFF7FD
:1058600044FD0300396C42F25470C0F20100019310
:1058700000952300082205F0CAFBBB6C0133BB6412
:105880002023FB181B69BA6C9A4298DBFB6C002B37
:1058900089D100231800BD4614B0B0BDB0B596B094
:1058A00002AF0023FB6442F26473C0F201037B6425
:1058B0003A002023F81808230421FFF75AFD082393
:1058C0003B647B6C3A6C396C42F26C70C0F2010044
:1058D00005F09DFB3B6C1800FFF735FD42F290731D
:1058E000C0F20103180005F092FB2023FA18FB6CAC
:1058F00011001800FFF765FD0300FB640023BB6483
:1059000057E03B00BA6C9200D3580C3BFB6303F0AA
:105910001BF90300BB63FB6B1B7A1A0080239A43BD
:1059200013002022BA18127A934204D0BB6B1800DD
:1059300003F00EF93AE0BB6B180003F009F9FB6BBA
:105940007B637B6B14331800FFF7C0FC030003BBC1
:105950007D6B7B6BDC697B6B14331800FFF7C5FC38
:105960000300396C42F2B070C0F201000193009460
:105970002B00082205F04BFB7B6B14331800FFF75C
:10598000BFFE42F25073C0F20103180005F03FFB66
:105990000CE07A6B7B6BDB69396C42F2C870C0F249
:1059A000010000931300082205F031FBBB6C0133AA
:1059B000BB642023FB181B69BA6C9A42A1DBFB6C09
:1059C000002B92D100231800BD4614B0B0BDF0B535
:1059D000C64600B59AB006AF0023FB6442F2DC7302
:1059E000C0F201037B643A002023F8180823032146
:1059F000FFF7BFFC08233B647B6C3A6C396C42F2C6
:105A0000E470C0F2010005F002FB3B6C1800FFF7E8
:105A10009AFC42F61403C0F20103180005F0F7FAED
:105A20002023FA18FB6C11001800FFF7CAFC0300D2
:105A3000FB640023BB6476E03B00BA6C9200D35851
:105A40000C3BFB6303F080F80300BB63FB6B1B7A2A
:105A50001A0080239A4313002022BA18127A934224
:105A600004D0BB6B180003F073F859E0BB6B18004F
:105A700003F06EF8FB6B7B637B6B14331800FFF74E
:105A800025FC030063BB7C6B7B6B1B6A1D007B6B7F
:105A90009B7F1E007B6B5B7F98467B6B14331800EB
:105AA000FFF723FC0300396C42F63C00C0F2010012
:105AB0000493434603930296019508230093230021
:105AC000082205F0A4FA7B6B14331800FFF718FEC8
:105AD00042F25073C0F20103180005F098FA1FE07B
:105AE0007C6B7B6B1B6A1D007B6B9B7F1E007B6B43
:105AF0005B7F98467B6B14331800FFF7F6FB0300BF
:105B0000396C42F65C00C0F20100049343460393F3
:105B100002960195082300932300082205F077FAE6
:105B2000BB6C0133BB642023FB181B69BA6C9A421F
:105B300082DBFB6C002B00D072E700231800BD460F
:105B400014B080BCB846F0BDF0B599B004AF0023E6
:105B5000FB6442F67C03C0F201037B643A0020231D
:105B6000F81808230521FFF704FC08233B647B6C2D
:105B70003A6C396C42F68400C0F2010005F047FA35
:105B80003B6C1800FFF7DFFB42F6A803C0F20103ED
:105B9000180005F03CFA2023FA18FB6C11001800DD
:105BA000FFF70FFC0300FB640023BB6468E03B00CD
:105BB000BA6C9200D3580C3BFB6302F0C5FF0300A4
:105BC000BB63FB6B1B7A1A0080239A4313002022CD
:105BD000BA18127A934204D0BB6B180002F0B8FFD7
:105BE0004BE0BB6B180002F0B3FFFB6B7B637B6B7E
:105BF00014331800FFF76AFB03002BBB7C6B7B6B35
:105C00005B8C1D007B6B1B8C1E007B6B14331800A0
:105C1000FFF76BFB0300396C42F6C400C0F20100D1
:105C20000293019600952300082205F0F0F97B6BA2
:105C300014331800FFF764FD42F25073C0F2010301
:105C4000180005F0E4F918E07C6B7B6B5B8C1D00A1
:105C50007B6B1B8C1E007B6B14331800FFF745FB1E
:105C60000300396C42F6DC00C0F201000293019699
:105C700000952300082205F0CAF9BB6C0133BB6410
:105C80002023FB181B69BA6C9A4290DBFB6C002B3B
:105C900000D080E700231800BD4615B0F0BDB0B5B8
:105CA00096B002AF0023FB6442F6F403C0F2010396
:105CB0007B643A002023F81808230621FFF759FBDC
:105CC00008233B647B6C3A6C396C42F60010C0F2DE
:105CD000010005F09CF93B6C1800FFF734FB42F61D
:105CE0002013C0F20103180005F091F92023FA18DF
:105CF000FB6C11001800FFF764FB0300FB6400233A
:105D0000BB6460E03B00BA6C9200D3580C3BFB6371
:105D100002F01AFF0300BB63FB6B1B7A1A0080239F
:105D20009A4313002022BA18127A934204D0BB6B14
:105D3000180002F00DFF43E0BB6B180002F008FFF3
:105D4000FB6B7B637B6B14331800FFF7BFFA030018
:105D50000BBB7C6B7B6B9B8C1D007B6B1433180027
:105D6000FFF7C3FA0300396C42F63810C0F20100A5
:105D7000019300952300082205F049F97B6B143349
:105D80001800FFF7BDFC42F25073C0F20103180087
:105D900005F03DF914E07C6B7B6B9B8C1D007B6BED
:105DA00014331800FFF7A1FA0300396C42F64C10C7
:105DB000C0F20100019300952300082205F027F9A5
:105DC000BB6C0133BB642023FB181B69BA6C9A427D
:105DD00098DBFB6C002B89D100231800BD4614B062
:105DE000B0BDF0B59BB004AF00237B6542F66013F5
:105DF000C0F201037B643A002023F818082308212D
:105E0000FFF7B7FA08233B647B6C3A6C396C42F6B7
:105E10006810C0F2010005F0FAF83B6C1800FFF7BB
:105E200092FA42F69013C0F20103180005F0EFF861
